{
  "contractName": "Hello",
  "abi": [
    {
      "inputs": [
        {
          "internalType": "uint256",
          "name": "",
          "type": "uint256"
        }
      ],
      "name": "persons",
      "outputs": [
        {
          "internalType": "string",
          "name": "name",
          "type": "string"
        },
        {
          "internalType": "uint256",
          "name": "age",
          "type": "uint256"
        }
      ],
      "stateMutability": "view",
      "type": "function",
      "constant": true
    },
    {
      "inputs": [
        {
          "internalType": "string",
          "name": "_name",
          "type": "string"
        },
        {
          "internalType": "uint256",
          "name": "_age",
          "type": "uint256"
        }
      ],
      "name": "addPerson",
      "outputs": [],
      "stateMutability": "nonpayable",
      "type": "function"
    },
    {
      "inputs": [],
      "name": "getPersonCount",
      "outputs": [
        {
          "internalType": "uint256",
          "name": "",
          "type": "uint256"
        }
      ],
      "stateMutability": "view",
      "type": "function",
      "constant": true
    },
    {
      "inputs": [
        {
          "internalType": "uint256",
          "name": "_index",
          "type": "uint256"
        }
      ],
      "name": "getPerson",
      "outputs": [
        {
          "internalType": "string",
          "name": "",
          "type": "string"
        },
        {
          "internalType": "uint256",
          "name": "",
          "type": "uint256"
        }
      ],
      "stateMutability": "view",
      "type": "function",
      "constant": true
    }
  ],
  "bytecode": "0x608060405234801561001057600080fd5b5061081b806100206000396000f3fe608060405234801561001057600080fd5b506004361061004c5760003560e01c80631ed52ed814610051578063246982c41461006f5780636f760f41146100a0578063a2f9eac6146100bc575b600080fd5b6100596100ed565b6040516100669190610408565b60405180910390f35b61008960048036038101906100849190610463565b6100f9565b604051610097929190610529565b60405180910390f35b6100ba60048036038101906100b5919061068e565b610223565b005b6100d660048036038101906100d19190610463565b610290565b6040516100e4929190610529565b60405180910390f35b60008080549050905090565b6060600080805490508310610143576040517f08c379a000000000000000000000000000000000000000000000000000000000815260040161013a90610736565b60405180910390fd5b600080848154811061015857610157610756565b5b9060005260206000209060020201604051806040016040529081600082018054610181906107b4565b80601f01602080910402602001604051908101604052809291908181526020018280546101ad906107b4565b80156101fa5780601f106101cf576101008083540402835291602001916101fa565b820191906000526020600020905b8154815290600101906020018083116101dd57829003601f168201915b505050505081526020016001820154815250509050806000015181602001519250925050915091565b60006040518060400160405280848152602001838152509080600181540180825580915050600190039060005260206000209060020201600090919091909150600082015181600001908051906020019061027f92919061034c565b506020820151816001015550505050565b600081815481106102a057600080fd5b90600052602060002090600202016000915090508060000180546102c3906107b4565b80601f01602080910402602001604051908101604052809291908181526020018280546102ef906107b4565b801561033c5780601f106103115761010080835404028352916020019161033c565b820191906000526020600020905b81548152906001019060200180831161031f57829003601f168201915b5050505050908060010154905082565b828054610358906107b4565b90600052602060002090601f01602090048101928261037a57600085556103c1565b82601f1061039357805160ff19168380011785556103c1565b828001600101855582156103c1579182015b828111156103c05782518255916020019190600101906103a5565b5b5090506103ce91906103d2565b5090565b5b808211156103eb5760008160009055506001016103d3565b5090565b6000819050919050565b610402816103ef565b82525050565b600060208201905061041d60008301846103f9565b92915050565b6000604051905090565b600080fd5b600080fd5b610440816103ef565b811461044b57600080fd5b50565b60008135905061045d81610437565b92915050565b6000602082840312156104795761047861042d565b5b60006104878482850161044e565b91505092915050565b600081519050919050565b600082825260208201905092915050565b60005b838110156104ca5780820151818401526020810190506104af565b838111156104d9576000848401525b50505050565b6000601f19601f8301169050919050565b60006104fb82610490565b610505818561049b565b93506105158185602086016104ac565b61051e816104df565b840191505092915050565b6000604082019050818103600083015261054381856104f0565b905061055260208301846103f9565b9392505050565b600080fd5b600080fd5b7f4e487b7100000000000000000000000000000000000000000000000000000000600052604160045260246000fd5b61059b826104df565b810181811067ffffffffffffffff821117156105ba576105b9610563565b5b80604052505050565b60006105cd610423565b90506105d98282610592565b919050565b600067ffffffffffffffff8211156105f9576105f8610563565b5b610602826104df565b9050602081019050919050565b82818337600083830152505050565b600061063161062c846105de565b6105c3565b90508281526020810184848401111561064d5761064c61055e565b5b61065884828561060f565b509392505050565b600082601f83011261067557610674610559565b5b813561068584826020860161061e565b91505092915050565b600080604083850312156106a5576106a461042d565b5b600083013567ffffffffffffffff8111156106c3576106c2610432565b5b6106cf85828601610660565b92505060206106e08582860161044e565b9150509250929050565b7f496e76616c696420696e64657800000000000000000000000000000000000000600082015250565b6000610720600d8361049b565b915061072b826106ea565b602082019050919050565b6000602082019050818103600083015261074f81610713565b9050919050565b7f4e487b7100000000000000000000000000000000000000000000000000000000600052603260045260246000fd5b7f4e487b7100000000000000000000000000000000000000000000000000000000600052602260045260246000fd5b600060028204905060018216806107cc57607f821691505b6020821081036107df576107de610785565b5b5091905056fea264697066735822122060f521532f72651cf7134d88cbc6e061ac96e1beee1fc9f2026f2086a9fe7f8b64736f6c634300080d0033",
  "immutableReferences": {},
  "source": "// SPDX-License-Identifier: MIT\npragma solidity >=0.4.22 <0.9.0;\n\ncontract Hello {\n    struct Person {\n        string name;\n        uint256 age;\n    }\n\n    // Array to store all persons\n    Person[] public persons;\n\n    // Function to add a person\n    function addPerson(string memory _name, uint256 _age) public {\n        // Add a new person to the array\n        persons.push(Person(_name, _age));\n    }\n\n    // Function to get the total number of persons\n    function getPersonCount() public view returns (uint256) {\n        return persons.length;\n    }\n\n    // Function to retrieve a person's details by index\n    function getPerson(\n        uint256 _index\n    ) public view returns (string memory, uint256) {\n        require(_index < persons.length, \"Invalid index\");\n        Person memory person = persons[_index];\n        return (person.name, person.age);\n    }\n}\n",
  "sourcePath": "/Users/ivan/Documents/working/git/hello-smart-contract/contracts/Hello.sol",
  "compiler": {
    "name": "solc",
    "version": "0.8.13+commit.abaa5c0e.Emscripten.clang"
  },
  "schemaVersion": "3.4.16",
  "updatedAt": "2024-12-20T07:26:59.353Z",
  "networkType": "ethereum",
  "devdoc": {
    "kind": "dev",
    "methods": {},
    "version": 1
  },
  "userdoc": {
    "kind": "user",
    "methods": {},
    "version": 1
  }
}